:020000040800F2
:10000000200E0020E5010008ED010008EF010008C6
:10001000F1010008F3010008F501000800000000EC
:10002000000000000000000000000000F7010008D0
:10003000F90100080000000099010008851500087A
:10004000FF010008FF010008FF010008FF01000890
:10005000FF010008FF010008FF010008FF01000880
:10006000FF010008FF010008FF010008FF01000870
:10007000FF010008FF010008FF010008FF01000860
:10008000FF010008FF010008FF010008FF01000850
:10009000FF010008FF010008FF010008FF01000840
:1000A000FF010008FF010008FF010008FF01000830
:1000B000FF010008FF010008F9150008FF01000812
:1000C000FF010008FF010008FF010008FF01000810
:1000D000FF010008F1170008FF010008FF010008F8
:1000E000FF010008FF010008FF01000800F002F80E
:1000F00000F042F80AA090E8000C82448344AAF180
:100100000107DA4501D100F037F8AFF2090EBAE87D
:100110000F0013F0010F18BFFB1A43F0010318473B
:100120000837000028370000103A24BF78C878C18B
:10013000FAD8520724BF30C830C144BF04680C60ED
:10014000704700000023002400250026103A28BF35
:1001500078C1FBD8520728BF30C148BF0B60704739
:10016000642900F09B80782900F0D480002070473B
:100170001FB51FBD10B510BD00F00BFB1146FFF7FA
:10018000F7FF02F0DFFB00F029FB03B4FFF7F2FFFB
:1001900003BC00F031FB000072B62DE9F00F1048EF
:1001A0000168C1F800D001B502F03AFFBDE8014096
:1001B0000168D1F800D0BDE8F00F62B6704772B6A2
:1001C00007480168D1F800D0BDE8F00F0FBC5DF81A
:1001D00004CB01B05DF804EB01B062B670470000DB
:1001E000400000200948804709480047FEE7FEE735
:1001F000FEE7FEE7FEE7FEE7FEE7FEE7FEE7FEE7D7
:1002000004480549054A064B704700009915000847
:10021000ED00000820080020200E0020200A002009
:10022000200A00200FB41CB5074B06AA7B44694680
:100230000090059800F095FA0020694600F0A4FAB5
:100240001CBC5DF814FB00005905000070B50446A5
:1002500085690068C10601D5302600E02026C00768
:1002600007D070BDD4E9012130469047206A401C78
:1002700020626D1EF6D570BD70B5044685690078A4
:10028000C00707D170BDD4E9012120209047206A22
:10029000401C20626D1EF6D570BD00002DE9F041B6
:1002A0000646002410687529314616A510D0AFF314
:1002B0000080002802DA404213A507E031688A076F
:1002C00001D512A502E0490704D511A5012401E0DA
:1002D000AFF3008000210A2206F1240709E0B0FBF9
:1002E000F2FCB0FBF2F302FB1C00303078541846ED
:1002F000491C0028F3D123462A463046BDE8F04188
:1003000000F0D1B9000000002D0000002B0000001B
:100310002000000070B504460D4621461068AFF37A
:1003200000802188090502D50F4A7A4402E00E4A6E
:100330007A440E32002104F1240305E000F00F0698
:100340000009965D5E54491C0028F7D120780023EF
:10035000000704D5702D02D009B1022311322046C6
:10036000BDE8704000F09FB9BE3400002DE9F05F99
:10037000894604464FF0000ADFF824B1FB44C0F878
:1003800020A02046E168884700287DD0252806D097
:10039000D4E901219047206A401C2062F1E7002542
:1003A0005F462046E16888472028064607DB312E55
:1003B00005D2B81910F8200C08B10543F1E7A807D9
:1003C00001D525F00405C4F81CA00027C4F818A026
:1003D0002A2E09D0304601F02FFA38B304EB8708F3
:1003E000303EC8F8186019E059F8041B204604EBA9
:1003F00087029161E1688847012F064618D1E069BC
:10040000002820DA25F020051DE0D8F8180000EBC0
:10041000800006EB40003038C8F818002046E1683C
:100420008847064601F008FA0028EED1012F0AD0CD
:100430002E2E08D12046E16888477F1C0646022FF1
:1004400045F02005C4DBA069002803DA404245F0EE
:100450000105A061E80701D025F01005A6B1A6F1BD
:100460004100192802D8203645F400654A46314635
:10047000204625604D46FFF773FE60B1012807D086
:10048000ED1D25F0070000E007E000F1080978E71E
:1004900005F1040975E730467AE7206ABDE8F09F68
:1004A00094340000401ECAB210F8011F8A4202D0E4
:1004B0000029F9D10020704740EA010310B59B07DD
:1004C0000FD1042A0DD310C808C9121F9C42F8D0BE
:1004D00020BA19BA884201D9012010BD4FF0FF306F
:1004E00010BD1AB1D30703D0521C07E0002010BD85
:1004F00010F8013B11F8014B1B1B07D110F8013B11
:1005000011F8014B1B1B01D1921EF1D1184610BDF1
:10051000032A40F2308010F0030C00F0158011F82F
:10052000013BBCF1020F624498BF11F801CB00F807
:10053000013B38BF11F8013BA2F1040298BF00F85B
:1005400001CB38BF00F8013B11F0030300F0258018
:10055000083AC0F0088051F8043B083A51F804CB3F
:10056000A0E80810F5E7121D5CBF51F8043B40F805
:10057000043BAFF30080D20724BF11F8013B11F810
:1005800001CB48BF11F8012B24BF00F8013B00F854
:1005900001CB48BF00F8012B704710B5203AC0F0DE
:1005A0000B80B1E81850203AA0E81850B1E8185074
:1005B000A0E81850BFF4F5AF5FEA027C24BFB1E8B1
:1005C0001850A0E8185044BF18C918C0BDE8104022
:1005D0005FEA827C24BF51F8043B40F8043B08BF2B
:1005E0007047D20728BF31F8023B48BF11F8012BF2
:1005F00028BF20F8023B48BF00F8012B704702F0EB
:10060000FF0343EA032242EA024200F002B84FF03D
:1006100000020429C0F0128010F0030C00F01B80CF
:10062000CCF1040CBCF1020F18BF00F8012BA8BFDD
:1006300020F8022BA1EB0C0100F00DB85FEAC17CA1
:1006400024BF00F8012B00F8012B48BF00F8012B54
:1006500070474FF0000200B5134694469646203985
:1006600022BFA0E80C50A0E80C50B1F12001BFF46B
:10067000F7AF090728BFA0E80C5048BF0CC05DF8D1
:1006800004EB890028BF40F8042B08BF704748BF1F
:1006900020F8022B11F0804F18BF00F8012B704793
:1006A0007047704770472DE9F0470D4699469246CE
:1006B000044600F124080168880604D5E06921F0A9
:1006C0001001216000E00120A84201DD471B00E08D
:1006D0000027A1697A1902EB0900081AA0612078A5
:1006E000C00602D42046FFF7B1FD002608E0D4E999
:1006F00001211AF806009047206A401C761C2062EF
:100700004E45F4DB2078C0060AD52046FFF79EFD53
:1007100006E0D4E9012130209047206A401C206285
:10072000381EA7F10107F4DC07E0D4E9012118F82D
:1007300005009047206A401C2062281EA5F1010593
:10074000F3DC2046FFF798FD2078000602D5022052
:10075000BDE8F0870120FBE701694A1C02610878C7
:10076000704700B58FB0CDE90131002105910549F1
:100770007944CDE9031011466846FFF7F7FD0FB045
:1007800000BD0000E5FFFFFF0A6802F8010B0A60E8
:100790007047754600F02CF8AE4605006946534692
:1007A00020F00700854618B020B5FFF729FDBDE809
:1007B00020404FF000064FF000074FF000084FF0C8
:1007C000000B21F00701AC46ACE8C009ACE8C00959
:1007D000ACE8C009ACE8C0098D46704710B50446C6
:1007E000AFF300802046BDE81040FFF7CEBC00000C
:1007F00000487047C007002001491820ABBEFEE743
:1008000026000200704700000EB50121022000F012
:10081000B9FC0020ADF806000720ADF800004FF647
:10082000FF70ADF804000020ADF80200012104487B
:1008300000F024FF6946024800F088FF0EBD00006A
:100840000004004010B5044604E04FF47A7000F054
:1008500005F8641E002CF8D110BD000010B5044648
:100860000021054800F06FFF00BF034800F012FFB1
:10087000A042FAD310BD0000000400402DE9F04171
:10088000024600250026002000230024002791F8BE
:1008900003C00CF00F0591F803C00CF0100CBCF174
:1008A000000F03D091F802C04CEA050591F800C092
:1008B000BCF1000F31D0146800202BE04FF0010C88
:1008C0000CFA00F3B1F800C00CEA03069E4220D1F6
:1008D00083004FF00F0C0CFA03F7BC4305FA03FC3E
:1008E0004CEA040491F803C0BCF1280F06D14FF084
:1008F000010C0CFA00FCC2F814C00AE091F803C025
:10090000BCF1480F05D14FF0010C0CFA00FCC2F805
:1009100010C0401C0828D1D31460B1F800C0BCF14D
:10092000FF0F34DD546800202EE000F1080C4FF07A
:10093000010808FA0CF3B1F800C00CEA03069E4265
:1009400021D183004FF00F0C0CFA03F7BC4305FADA
:1009500003FC4CEA040491F803C0BCF1280F05D154
:1009600000F1080C08FA0CF8C2F8148091F803C0E2
:10097000BCF1480F07D100F1080C4FF0010808FA4C
:100980000CF8C2F81080401C0828CED35460BDE893
:10099000F081416170470161704770B502460024E3
:1009A000002500230020958A138B1B0445EA0306CB
:1009B00026F07F4404EA01068E4201D1012000E0C6
:1009C000002070BD21B1028842F00102028004E0E3
:1009D00002884FF6FE731A400280704721B10288E8
:1009E00042F48072028004E002884FF6FF631A40EE
:1009F0000280704721B1028842F40072028004E054
:100A000002884FF6FF531A40028070470CB5024629
:100A1000002000230193009300920B0F019321F01B
:100A20007F41019B1BB1009B1433009303E0090C31
:100A3000009B18330093009B1B680B400BB10120F7
:100A400000E000200CBD00002DE9F04385B0044615
:100A50000D460026B1460427DFF8CC80A6884FF665
:100A6000C0700640684600F0ADFBDDF808802F48F6
:100A7000B8FBF0F01FFA80F946EA0906A680208844
:100A80004FF6FE71084020800026294928688842D8
:100A90000CD828684000B8FBF0F087B2042F00DAC9
:100AA00004273E4309F10100208427E0E8884BF643
:100AB000FF71884206D1286800EB4000B8FBF0F0D7
:100AC00087B209E0286800EBC00101EB0010B8FB19
:100AD000F0F087B247F48047C7F30B0008B947F03E
:100AE000010747F4004006434FF4967009FB00F0FD
:100AF0004FF47A7190FBF1F0401C2084A68320888B
:100B000040F00100208026884FF6F5300640A88886
:100B10006989084306432680A889298908432081DA
:100B200005B0BDE8F083000000127A0040420F00DB
:100B3000A086010000B585B00121092000F032FB3C
:100B40000121480500F01EFBC020ADF810001C205C
:100B50008DF8130003208DF812000020ADF804007A
:100B60004FF48060ADF80A000001ADF80C000B48AE
:100B700000904BF6FF70ADF806000020ADF80800BD
:100B800004A90748FFF77AFE69460648FFF75CFFAD
:100B900001210448FFF716FF05B000BDA086010043
:100BA000000C01400054004012B141F0010102E08C
:100BB0004FF6FE73194001827047018270470000B2
:100BC0002DE9F04180460F4615461E4616B9012014
:100BD000BDE8F081274C03E0601E041E00D1F7E75A
:100BE0004FF400314046FFF711FF0028F4D10121F6
:100BF0004046FFF7F3FE1F4C03E0601E041E00D1C9
:100C0000E6E71D494046FFF7C8FE0028F5D0780604
:100C1000010E00224046FFF7C7FF164C03E0601E9E
:100C2000041E00D1D4E715494046FFF7B6FE002860
:100C3000F5D014E015F8011B4046FFF7BEFF322047
:100C4000FFF70CFE0B4C03E0601E041E00D1BFE753
:100C50000A49891C4046FFF7A0FE0028F4D0301E48
:100C6000A6F101018EB2E5D101214046FFF7C2FE97
:100C70000120ADE7A086010001000300820007000B
:100C800010B5012000F07EF80220FFF7DBFD10BD5B
:100C900010B5FFF74FFF3220FFF7D4FD032000F01F
:100CA00035F80520FFF7CEFD032000F02FF8C8200F
:100CB000FFF7D4FD032000F029F83220FFF7CEFD26
:100CC000022000F023F8282000F05CF8802000F0DB
:100CD00059F80F2000F056F8012000F053F80220D8
:100CE000FFF7B0FD10BD10B5C02000F04BF810BDEF
:100CF00010B5044606E014F8010B00F021F80A20B4
:100D0000FFF7ACFD20780028F5D110BD38B50546B9
:100D10002807040E04F0F00040F00C008DF80000ED
:100D200004F0F00040F008008DF8010002236A464C
:100D300027210248FFF744FF38BD0000005400405F
:100D40007CB5044604F0F005F02000EA041645F0F6
:100D50000D008DF8000045F009008DF8010046F007
:100D60000D008DF8020046F009008DF80300042301
:100D70006A4627210248FFF723FF01907CBD00004F
:100D800000540040F8B5044604F0F005F02000EAF5
:100D9000041645F00C008DF8000045F008008DF8B1
:100DA000010046F00C008DF8020046F008008DF8B6
:100DB000030004236A4627210148FFF701FFF8BD1D
:100DC0000054004008B50121102000F0EBF910207C
:100DD0008DF8030003208DF802004FF40050ADF8A9
:100DE000000069460148FFF749FD08BD00100140B9
:100DF00010B504462146074800F0C2FA00BF802122
:100E0000044800F0B1FA0128F9D0024800F0B5FA20
:100E1000C0B210BD0038004010B5142000F062F8D8
:100E2000044644F00301142000F092F910BD38B5D7
:100E30000446932020702020607000210D2000F0D7
:100E400087F96B4622462146022000F0F2F805465B
:100E5000BDF80000282801D0012038BD2846FCE755
:100E600070B50546284600F05BF804461CB92846D4
:100E7000FFF7DDFF0446204670BD70B505460C4601
:100E8000284600F02FF8064626EA0401284600F01E
:100E90005FF970BD10B500F061F800F058F832202D
:100EA000FFF7DCFC8D212A2000F052F93E212B2097
:100EB00000F04EF91E212C2000F04AF900212D20CF
:100EC00000F046F97021262000F042F9402115205B
:100ED00000F03EF93D21112000F03AF9FFF79CFFA8
:100EE00010BD000070B5044610210B48FFF751FDFE
:100EF0007E2000EA440040F08001084800F060FADB
:100F00000021064800F05CFA054610210248FFF770
:100F100042FD284670BD000000080140003001403D
:100F200038B504462620207007210D2000F010F966
:100F30006B4622462146012000F07BF805461DB98C
:100F4000BDF80000102800D00125284638BD10B596
:100F50000F21012000F0FCF810BD000000B587B0A3
:100F60000121042000F01EF90121080300F01AF904
:100F7000A020ADF8180003208DF81A0018208DF875
:100F80001B0006A92248FFF779FC4020ADF81800A5
:100F900003208DF81A0004208DF81B0006A91C48B8
:100FA000FFF76CFC1020ADF8180003208DF81A0034
:100FB00010208DF81B0006A91548FFF75FFC1021D3
:100FC0001348FFF7E8FC1820ADF810000020ADF83A
:100FD0000C00ADF80A00ADF80800ADF812004FF4AF
:100FE0000070ADF80E004FF48270ADF806000020DE
:100FF000ADF804000720ADF8140001A9054800F081
:10100000C1F90121034800F0A3F907B000BD0000B9
:10101000000801400030014070B505460C462846E6
:10102000FFF760FF064646EA0401284600F090F804
:1010300070BD2DE9FC470746884691461D460020B5
:1010400001904FF0010AF721022000F081F8802181
:101050000420FFF712FF0021012000F079F8802121
:101060000A20FFF7D9FF002406E018F80410092031
:1010700000F06EF8601C84B2BC42F6DB0C2101204B
:1010800000F066F880210D20FFF7C6FF4FF4FA64E8
:1010900000BF0420FFF726FF0190601E84B254B108
:1010A0009DF8040000F0010028B99DF8040000F04C
:1010B00030000028EDD080210D20FFF7DEFE062055
:1010C000FFF710FF0090002C3FD00620FFF70AFF2B
:1010D00000F01B00B0BB4FF0000A9DF8040000F0C8
:1010E000010008B14FF0030A0A20FFF7FBFE019050
:1010F0000C20FFF7F7FE00F0070636B19DF804005C
:10110000401E06EBC000288003E09DF80400C000EC
:1011100028809DF8040008B9012001909DF8040082
:10112000102801DD10200190002406E00920FFF7BF
:10113000D9FE09F80400601C84B29DF804008442C2
:10114000F4DB02E0FFE74FF0010A5046BDE8FC8700
:1011500070B504460D4610210848FFF71AFC7E20A2
:1011600000EA4401064800F02BF92946044800F043
:1011700027F910210148FFF70EFC70BD000801405F
:101180000030014029B1064AD2690243044BDA61BA
:1011900004E0034AD2698243014BDA6170470000E0
:1011A0000010024029B1064A92690243044B9A6139
:1011B00004E0034A92698243014B9A617047000040
:1011C0000010024030B500210022002400232D4DE4
:1011D0006D6805F00C0121B1042905D0082923D13F
:1011E00005E0294D056022E0274D05601FE0254DF3
:1011F0006D6805F47012234D6D6805F48034022586
:1012000005EB92421CB9214D554305600BE01D4D85
:101210006D6805F400351DB11C4D5543056002E0B5
:10122000194D5543056002E0174D056000BF00BF32
:10123000144D6D6805F0F0010909154D6B5C0568EA
:10124000DD4045600F4D6D6805F4E061090A104D01
:101250006B5C4568DD4085600A4D6D6805F4605142
:10126000C90A0B4D6B5C4568DD40C560054D6D6876
:1012700005F44041890B074D6B5CC568B5FBF3F580
:10128000056130BD0010024000127A0000093D00E7
:10129000480000205800002000B587B00121082038
:1012A000FFF780FF01218803FFF76CFF4FF4204018
:1012B000ADF8180003208DF81A0018208DF81B00D7
:1012C00006A92148FFF7DAFA4FF48040ADF818007C
:1012D00003208DF81A0004208DF81B0006A91A4877
:1012E000FFF7CCFA4FF48050ADF8180003208DF8CA
:1012F0001A0010208DF81B0006A91348FFF7BEFA4C
:101300001820ADF810000020ADF80C00ADF80A0070
:10131000ADF80800ADF812004FF40070ADF80E0003
:101320004FF48270ADF806000020ADF804000720ED
:10133000ADF8140001A9054800F024F80121034884
:1013400000F006F807B000BD000C01400038004076
:1013500021B1028842F04002028004E002884FF688
:10136000BF731A40028070470246002013890B4069
:101370000BB1012000E000207047014688897047CA
:101380008181704710B50022028802F441520B8817
:101390004C8823438C882343CC8823430C892343E4
:1013A0004C8923438C892343CC8923431A430280ED
:1013B000838B4FF2FF74234083830B8A038210BD1B
:1013C00070B504460D4600BF02212046FFF7CCFF52
:1013D0000028F9D029462046FFF7D2FF00BF01219F
:1013E0002046FFF7C1FF0028F9D000BF802120462A
:1013F000FFF7BAFF0128F9D02046FFF7BEFFC0B2C1
:1014000070BD000000B589B001210520FFF7CAFEBC
:101410000120ADF8040018208DF8070003208DF896
:10142000060001A91A48FFF729FA01210846FFF72B
:10143000A9FE0720ADF8180044F61F60ADF81C00A7
:101440000020ADF81E00ADF81A0006A94FF080404C
:1014500000F07CF90121880700F010F96020ADF858
:1014600008000120ADF80A000020ADF81000ADF82A
:101470000E0002A94FF0804000F010F9012188070A
:1014800000F0F0F80821C80600F054F909B000BDDA
:101490000008014010B500F001F810BD0CB50020A7
:1014A000019000903348006840F480303149086072
:1014B00000BF3048006800F4003000900198401CE4
:1014C0000190009818B90198B0F5A06FF1D12948A2
:1014D000006800F4003010B10120009001E000200D
:1014E00000900098012843D12348006840F0100084
:1014F000214908600846006820F007000860084697
:10150000006840F0020008601A48406819494860C5
:101510000846406848600846406840F4806048607B
:101520000846406820F47C1048600846406840F453
:10153000E81048600846006840F08070086000BF0E
:101540000C48006800F000700028F9D00948406895
:1015500020F00300074948600846406840F0020058
:10156000486000BF0348406800F00C000828F9D12B
:101570000CBD000000100240002002404FF08041EE
:10158000888670470348006840F080500149086031
:101590007047000004ED00E010B51348006840F00B
:1015A00001001149086008464068104908400E498A
:1015B0004860084600680E4908400B490860084624
:1015C000006820F4802008600846406820F4FE008F
:1015D00048604FF41F008860FFF75CFF4FF0006029
:1015E0000449086010BD0000001002400000FFF830
:1015F000FFFFF6FE08ED00E01749098821F0010120
:10160000154A1180002021E000EB8001134A02EB13
:101610008101C968C1B100EB800102EB8101C96899
:10162000491E00EB80020D4B03EB8202D16000EB00
:1016300080011A4602EB8101C96829B9002100EB3B
:10164000800203EB82021182411C88B2044909889E
:101650008842D9DB7047000010080040D402002007
:101660003C00002021B1028842F08002028004E0A8
:1016700002884FF67F731A400280704721B10288BA
:1016800042F00102028004E002884FF6FE731A4025
:10169000028070470146888C7047000070B50024B6
:1016A00000220023058C4FF6FE7635400584028C1F
:1016B0008388048B4FF68F752C40B51E2C400D8807
:1016C0002C43751E2A400D892A434D882A43144D08
:1016D000A8420BD0134DA84208D0134DA84205D004
:1016E000124DA84202D0124DA84213D14FF6F77501
:1016F0002A404D892A434FF6FB752A408D882A439C
:101700004FF6FF652B404FF6FF552B408D892B433D
:10171000CD892B4383800483CD888586028470BD68
:10172000002C0140003401400040014000440140D1
:10173000004801400A460021018B4FF6F77319401B
:1017400011430183704781847047000000220288A2
:101750001D4B98420ED01D4B98420BD0B0F1804FDC
:1017600008D01B4B984205D01A4B984202D01A4B16
:10177000984204D14FF68F731A404B881A43174B87
:10178000984207D0164B984204D04FF6FF431A40B8
:10179000CB881A4302808B8883850B8803850A4B8C
:1017A00098420BD0094B984208D00E4B984205D076
:1017B0000D4B984202D00D4B984201D10B7A038613
:1017C0000123838270470000002C01400034014057
:1017D0000004004000080040000C004000100040E1
:1017E0000014004000400140004401400048014016
:1017F0000548008820F0200003490880081D008863
:101800000249087070470000003801403000002095
:1018100010B5002804DB0A07130E054A135406E02E
:101820000A07140E034A00F00F031B1FD45410BD07
:1018300000E400E018ED00E030380A2801D2012071
:1018400070470020704700002DE9F04104468846AB
:1018500000202071401EE0614146204601F042FA1E
:1018600010B10420BDE8F08104F22E2001F045F80B
:10187000074694F83050EB2D03D0E92D01D0E82D28
:1018800043D14AF65520874208D1082223A104F10A
:101890008200FEF711FE08B90020E3E704F13B00E7
:1018A00001F02BF806463D20055D701E304060BB00
:1018B000B6F5007F29DBB6F5007F26DC2DB3681E68
:1018C000284010BB04F13E0001F017F8E8B14020B9
:1018D000005D401E012818D804F1410001F00DF808
:1018E00098B104F1430001F008F8802806DA04F109
:1018F000500001F008F8B0F5803F06D304F146002F
:1019000000F0FBFF08B10020ACE74AF65520874203
:1019100001D10220A6E70320A4E70000464154338A
:1019200032202020000000000246891E5069801EDF
:10193000884201D8002070475389D06A03FB010018
:10194000F9E72DE9F04782468846DAF80040B8F119
:10195000000F06D1E76817B16069B84215D80127B2
:1019600013E04146504600F02FFF0546022D02D2FB
:101970000120BDE8F087681C08B92846F9E76069CE
:10198000A84201D92846F4E74746206908B9002053
:10199000EFE70026474518D17E1C6069B04200D8A9
:1019A00002263146504600F00FFF0546012D01D0BA
:1019B000681C08B92846DCE73DB1E568022D03D371
:1019C0006069A84200D92F460026E6B93E4600BF0E
:1019D000761C6069B04204D80226BE4201D90020BC
:1019E000C7E73146504600F0EFFE054605B909E06D
:1019F000012D01D0681C08B92846BAE7BE42E7D1DC
:101A00000020B6E700BF4FF0FF323146204601F01C
:101A100055FB8146B9F1000F08D1B8F1000F05D090
:101A200032464146204601F049FB8146B9F1000F9C
:101A30000FD1E6602069A0B1D4E90410801E814274
:101A40000FD82069401E2061607940F0010060716C
:101A500007E0B9F1010F02D14FF0FF3000E00120A3
:101A60000646304685E700002DE9F35F8946D9F840
:101A70000080009800F1200520220B212846FEF767
:101A8000BEFD0020074606464FF0080B00BF30465B
:101A9000761C18F80040202C00DC4AE02F2C01D0E6
:101AA0005C2C0AD100E0761C18F806002F28FAD02A
:101AB00018F806005C28F6D03BE02E2C01D05F45DC
:101AC0000BD3BBF10B0F01D02E2C02D00620BDE8AA
:101AD000FC9F08274FF00B0BD9E7204600F04AF88F
:101AE000A8B13046761C18F800A0504600F05CF80B
:101AF00018B1ABF10100B84201D80620E7E738463B
:101B00007F1C2C5438467F1C05F800A010E02146AD
:101B100014A0FEF7C7FC08B10620D8E7612C04DB4F
:101B20007A2C02DCA4F12000C4B238467F1C2C546D
:101B3000ADE700BF08EB0600C9F800000FB90620AA
:101B4000C5E72878E52801D105202870202C03DD81
:101B500018F80600202801DC042000E00020E872CC
:101B60000020B4E72A2B2C3A3B3C3D3E5B5D7C22B7
:101B70003F7F000001460B48007888420FDC09488F
:101B80004078884201DB012070470648807888420F
:101B900005DC0448C078884201DB0120F4E700201E
:101BA000F2E70000E2370008014610480079884259
:101BB00019DC0E484079884201DB012070470B4850
:101BC0008079884205DC0948C079884201DB012020
:101BD000F4E70648007A884205DC0448407A8842E7
:101BE00001DB0120EAE70020E8E70000E237000817
:101BF00008B54FF480510448FEF7CDFE0121684638
:101C000001F01EFB08BD0000000C01402DE9F04171
:101C100004460E46D4F800800021204600F011F959
:101C20000546EDB9002700BF4046A16901F05AF80A
:101C3000054605B113E0E0690078E52802D0E069C7
:101C4000007820B9781C0746B04201D107E0002790
:101C50000121204600F06FF80546002DE4D000BFBA
:101C6000042D00D107252846BDE8F0812DE9F04775
:101C700004468946204601F021FC10B10120BDE850
:101C8000F08749462046FFF74FFE0646E6614FF4CF
:101C9000007104F13000FEF7DCFC04F1300801278C
:101CA000002500E03D446089A84207D97219607898
:101CB0003B46414600F05AFA0028F3D06089A8421A
:101CC00001D00120DBE70020D9E72DE9F0410446EF
:101CD00027680021204600F0B4F8054615B12846D3
:101CE000BDE8F08100BF3846A16900F0FBFF054662
:101CF00005B11DE0E06906780EB9042518E0E06939
:101D0000C07A00F03F00A071E069C07A00F00800DE
:101D100038B90B2204F12001E069FEF7CDFB00B9D0
:101D200006E00021204600F006F80546002DDAD036
:101D300000BF2846D4E72DE9F041044688462768CD
:101D4000206900F12006B6F5001F01D30020A06134
:101D5000A06910B90420BDE8F081C6F3080000288E
:101D600045D1A069401CA061606938B93889B0EBE1
:101D7000561F3CD80020A0610420ECE77889401E63
:101D800000EA562098BB2046616900F01DFD05461B
:101D9000012D01D80220DEE7681C08B90120DAE72E
:101DA0007869A8421DD8B8F1000F03D10020A061C6
:101DB0000420D0E720466169FFF7C3FD05460DB951
:101DC0000720C8E7012D01D10220C4E7681C08B92B
:101DD0000120C0E729463846FFF748FF08B1012037
:101DE000B9E7656129463846FFF79EFDA061266187
:101DF000C6F3080107F130000844E0610020AAE7BB
:101E000070B50446266801212046FFF7FFFE05460F
:101E1000ADB93046A16900F065FF05467DB92021C6
:101E2000E069FEF7F4FBE069216A0160616A4160E4
:101E3000218D018194F82A10817201203071284689
:101E400070BD2DE9F04104460D462668B5F5001F2A
:101E500002D205F01F0010B10220BDE8F08125611B
:101E6000A7681FB93078032800DBB76A47B9308903
:101E7000B0EB551F01D80220EFE7B06AA0611CE06B
:101E800070894FEA402811E03946204600F09CFC5A
:101E90000746781C08B90120DFE7022F02D37069DA
:101EA000B84201D80220D8E7A5EB08054545EBD29A
:101EB00039463046FFF738FDA0616761A06908B96F
:101EC0000220CAE7A06900EB5520A061C5F3080114
:101ED00006F130000844E0610020BEE72DE9F84338
:101EE0008046B8F1000F02D00320BDE8F88342F22B
:101EF000107000F089F9FFF7CFF90A2505E00121FC
:101F0000684601F09DF9681EC5B2002DF7D1002684
:101F10000021084601F018FA01285DD14FF4D5716F
:101F2000082001F011FA012832D10421684601F09D
:101F300087F99DF8020001284ED19DF80300AA28D8
:101F40004AD14FF47A740BE04FF08041A92001F0A0
:101F5000FBF900B906E04FF47A7000F055F9641E01
:101F6000002CF1D100BF002C36D000213A2001F026
:101F7000EBF988BB0421684601F062F99DF8000086
:101F800000F0400008B1182000E00820064623E0D9
:101F90000021A92001F0D8F9012802DC0826A92790
:101FA00001E0012601274FF47A740AE00021384647
:101FB00001F0CAF900B906E04FF47A7000F024F994
:101FC000641E002CF2D100BF2CB14FF40071102020
:101FD00001F0BAF900B10026064806700EB90120DA
:101FE00000E000208146044880F80090FFF700FEE2
:101FF00048467AE73B0000203A0000202DE9FF47E1
:1020000081460E461446484600F0A6F800F001004E
:1020100018B1032004B0BDE8F087012726B1012ED6
:1020200007D0032E50D14BE001F078F900B1002722
:102030004CE00021092001F087F9E8BB1021684637
:1020400001F0D8F8C0B39DF800000121B1EBA01F4A
:102050000FD19DF809009DF8081000EB01209DF8B4
:10206000071001F03F0100EB0140451CA802206071
:1020700024E09DF8050000F00F009DF80A1000EB29
:10208000D1109DF8091001F0030100EB410000F1AF
:1020900002089DF8080080119DF8071000EB8100F0
:1020A0009DF8061001F0030100EB8120451CA8F10A
:1020B000090005FA00F000E001E02060002705E0DB
:1020C00080202060002701E0042700BF00BFFFF749
:1020D0008FFD38469EE700002DE9F04781460D460A
:1020E00016461C46B046484600F036F800F001009F
:1020F00010B10320BDE8F0871648007800F010000A
:1021000008B94FEA4828012C01D9122000E011201B
:1021100007464146384601F017F998B900BF4FF419
:102120000071284601F066F800B904E005F5007575
:10213000601E041EF3D100BF122F03D100210C201A
:1021400001F002F9FFF754FD0CB10120D2E70020A5
:10215000D0E700003B000020014609B10120704794
:1021600001480078FBE700003A0000202DE9F0412B
:1021700080460D4616461C4637464046FFF7ECFFA4
:1021800000F0010010B10320BDE8F0811D48007887
:1021900000F0100000B97F02012C0BD13946182045
:1021A00001F0D2F838BBFE21284601F0E6FA10B360
:1021B000002420E01348007800F00C0018B12146FC
:1021C000972001F0C1F83946192001F0BDF890B907
:1021D00000BFFC21284601F0D0FA00B904E005F563
:1021E0000075601E041EF4D100BFFD21002001F027
:1021F000C4FA00B90124FFF7FBFC0CB10120C3E7CE
:102200000020C1E73B00002010B504462046FEF741
:1022100025FB10BD38B50546284600F025F90446D3
:102220003CB96946284601F071FA04460CB9002011
:102230002860204638BD0000F7B582B016460398E6
:10224000019001A800F030FB0446002C02DA0B20BC
:1022500005B0F0BD0F4850F8245025B100200D49BD
:1022600041F824002870029840B102994C70002077
:10227000029908700749029841F824000EB900201D
:10228000E6E7002202A903A800F0DAFB0746384679
:10229000DEE70000340000202DE9F7478DB004464A
:1022A00016461CB9092010B0BDE8F08706F03F06BD
:1022B000324601A90EA800F0C3FB0546002D6FD1E0
:1022C000019820600198029002A80E9900F02DFA62
:1022D00005462DB99DF8330000F0800000B10625B9
:1022E00006F01C00002853D045B1042D03D102A8EC
:1022F000FFF786FD054646F008060AE006F00400F2
:1023000008B1082505E09DF80E0000F0110000B1AD
:102310000725002D4ED106F0080000284AD0DFF82E
:102320004481099901F10E00414601F061F80999D3
:1023300001F11600414601F05BF80999019800F09F
:10234000EEFA074620200999C872002209990198DF
:1023500001F05AF8099901F11C00002101F048F838
:1023600001200199087197B10198D0F81C900022C2
:10237000394602A800F084FF05463DB94946019858
:1023800000F0B0FC0546781E0199C86000BF11E05E
:1023900085B99DF80E0000F0100010B1042509E089
:1023A0005BE006F0020028B19DF80E0000F001008D
:1023B00000B107254DB906F0080008B146F0400607
:1023C0000198C069206209986062002D45D1099981
:1023D000019800F0A4FAA060099901F11C0000F036
:1023E00092FAE0600198C088A08026740020607492
:1023F000E061606106F0200078B3E06868B3E068EF
:102400006061019840894FEA4029A768D4F80C80A0
:102410000CE03946204600F0D7F90746012F00D8D6
:102420000225781C00B90125A8EB09080DB9C8459B
:10243000EFD8A76185B9C8F3080068B1394601989B
:10244000FFF772FA8246BAF1000F01D1022502E0CD
:102450000AEB5820E06100BF00BF0DB100202060F2
:10246000284620E700002150F8B50446694620467A
:1024700001F04CF9064676BB207C00F0400050B3DA
:10248000216A009800F02EFC064626BB656AE87AB1
:1024900040F02000E8722946A268206800F0B4FFEE
:1024A00005F11C00E16800F0A3FF0C4905F11600DE
:1024B00000F09EFF002105F1120000F093FF0120C3
:1024C00000990871009800F0B1FF0646207C00F0EA
:1024D000BF00207400BF3046F8BD0000000021504E
:1024E0002DE9FF4F83B0044615469B4604980090A3
:1024F0000020CBF8000001A9204601F007F9029066
:10250000029810B9607C029018B1029807B0BDE83B
:10251000F08F207C00F0020008B90720F6E700BF2A
:10252000606928446169884202D26069C0F1FF3560
:10253000B5E0A08AC0F3080000287DD10198408949
:10254000401E616900EA512ABAF1000F1ED160698C
:1025500038B9A76857B900212046FFF7F2F90746B6
:1025600004E02046A169FFF7ECF9074607B999E0B6
:10257000012F02D102206074C8E7781C10B9012035
:102580006074C3E7A761A06800B9A7600198C0693B
:10259000E169884206D1019800F090FF10B1012056
:1025A0006074B3E7A1690198FFF7BEF9064616B952
:1025B00002206074AAE756444FEA5529B9F1000F8A
:1025C0002CD00AEB090001994989884203D9019866
:1025D0004089A0EB0A09019948784B463246009998
:1025E000FFF7C4FD10B1012060748FE70198C06946
:1025F000801B48450ED20198C069801B009A02EBEF
:1026000040214FF4007201983030FDF781FF002027
:10261000019908714FEA49282CE00DE0E1686069F2
:10262000884208D3019800F049FF10B1012060747E
:102630006CE70198C661E661A08AC0F30800C0F5A6
:102640000078A84500D9A846E169019800F04AFB46
:1026500010B10120607459E7A18AC1F30802019901
:102660003031501842460099FDF752FF0120019980
:10267000087100BFA5EB0805DBF800004044CBF86B
:102680000000009840440090606940446061E16847
:102690006069884201D9606900E0E068E060002D6F
:1026A0007FF447AF00BF207C40F040002074002042
:1026B0002CE72DE9FF4107460D4600213846FFF77C
:1026C000C3F80646022E06D0032E00D21DB93046AE
:1026D00004B0BDE8F08100BF00240AE007F5F771FF
:1026E00001EB041101F1080000F00DF94DF8240090
:1026F000641C042CF2D30DB1681E00E000200446D7
:1027000000BF5DF8240028B15DF824103846FFF7BB
:102710009BF800E0032006462DB9022E03D3601C6F
:1027200004460428EDD33046D2E72DE9F3410446B0
:10273000276802E00198401C0190019800782F283A
:10274000F8D0019800785C28F4D00020A0600198AF
:102750000078202808D280212B2001550021204616
:10276000FFF76FFB05462CE000BF01A92046FFF7ED
:102770007BF9054605B123E02B20065D2046FFF7D7
:10278000A4FA05463DB1042D04D100BF06F00400B3
:1027900000B9052514E006F0040000B110E0A079AE
:1027A00000F0100008B905250AE0208AC0F30802ED
:1027B00007F130001118384600F0B1F8A060D4E7F6
:1027C00000BF2846BDE8FC812DE9F04781460C4654
:1027D000D9F80050022C02D36869A04202D84FF009
:1027E00001085EE04FF0FF382878012804D0022865
:1027F0002CD0032851D13CE0264606EB5606686AE9
:1028000000EB5621284600F06DFA00B148E0304652
:10281000761CC0F3080105F13000475C686A00EBE4
:102820005621284600F05EFA00B139E0C6F30801EF
:1028300005F13000405C47EA002704F0010008B1D0
:10284000380901E0C7F30B00804629E0686A00EB15
:102850001421284600F046FA00B121E040F2FF11B1
:1028600001EA440205F13001501800F046F88046B4
:1028700016E0686A00EBD411284600F033FA00B184
:102880000EE040F2FF1101EA840205F13001501818
:1028900000F039F820F0704802E04FF0010800BF66
:1028A00000BF4046BDE8F08730B5044620680146C9
:1028B000024611B94FF0FF3030BD00BF12F8013BA6
:1028C000212B01D33A2BF9D13A2B14D101250878C9
:1028D000302808DB0878392805DC881C904202D1B2
:1028E0000878A0F13005012D02DB4FF0FF30E3E75F
:1028F00022602846E0E70020DEE7014648780A78B3
:1029000042EA002070470146C8788A7842EA0020EF
:102910004A7842EA00200A7842EA0020704770B5FF
:1029200005460C4604F11A00FFF7E7FF0646287833
:10293000032805D104F11400FFF7DFFF46EA004643
:10294000304670BD10B5FDF75FFFFEF7A1F9FEF749
:1029500059FDFEF79FFA00F033FB002301226421AA
:10296000214800F0BDFA0023012264211F4800F035
:10297000B7FA0023032264211D4800F0B1FA0021B8
:102980001C4800F065FB00211B4800F061FB1BA008
:10299000FEF7AEF9FEF716FA01221AA11A48FFF760
:1029A0004BFC1A4908701AA000F058FC1BA000F05C
:1029B00055FC32221CA11E48FFF76EFC134908701B
:1029C0000846007870B91B4B08221BA11848FFF776
:1029D00087FD1748FFF71EFC0C4908704FF4FA609A
:1029E00000F0FAFA002010BDF93500086D36000835
:1029F00009350008080000200C00002048656C6CB8
:102A00006F000000000000006C0000201400002097
:102A1000423643323642322E74787400463731469D
:102A20003842432E7478740048692E74787400001C
:102A30009C0200201000002057656C636F6D6500DC
:102A40002DE9F74F84B00021059801600498FFF745
:102A50002BFF03900398002803DA0B2007B0BDE892
:102A6000F08F9A49039851F820400CB90C20F5E7F3
:102A700005980460069800F0FE000690207878B172
:102A80006078FFF769FB074607F0010040B9069838
:102A900020B107F0040008B10A20DFE70020DDE7DD
:102AA000002020706078FFF719FA074607F0010050
:102AB00008B10320D2E7069820B107F0040008B15E
:102AC0000A20CBE700212046FFF7F3FD0546042D41
:102AD00001D10120C2E7022D01D30D20BEE7D4F8B9
:102AE0001C9004F13B00FFF708FFB0F5007F01D018
:102AF0000D20B3E704F14600FFF7FFFE064626B9B6
:102B000004F15400FFF7FFFE0646A6614020005D79
:102B1000E070E078012804D0E078022801D00D2090
:102B20009CE7E07846433D20005D6081608918B1F4
:102B30006089411E084008B10D208FE704F1410073
:102B4000FFF7DBFE2081207A00F00F0008B10D2096
:102B500084E704F14300FFF7D0FE8246BAF1000F8C
:102B600004D104F15000FFF7CEFE824604F13E008E
:102B7000FFF7C3FE8346BBF1000F01D10D206DE7C7
:102B80000BEB0600218900EB1110029002988245A0
:102B900001D20D2062E70298AAEB00006189B0FB28
:102BA000F1F8B8F1000F01D10D2057E70025484892
:102BB000804500D803254FF6F570804500D80225E2
:102BC00040F6F570804500D801250DB90D2045E788
:102BD00008F102006061C4F8209009EB0B0060620C
:102BE00002984844E062032D13D104F15A00FFF724
:102BF00084FE08B10D2031E7208908B10D202DE7B2
:102C000004F15C00FFF77FFEA06260698000019024
:102C100014E0208908B90D2020E7606A3044A062E2
:102C2000022D02D16069400007E0207D00F0010024
:102C3000616901EB410100EB51000190A16901982C
:102C400000F2FF10B1EB502F01D20D2006E74FF03C
:102C5000FF302061E06080206071032D2CD104F1F1
:102C60006000FFF74AFE012826D109F10101204644
:102C700000F038F800BB0020607104F13000FFF76D
:102C800042FE1449884217D104F50570FFF73BFE58
:102C90001149884210D104F50B70FFF734FE0F493B
:102CA000884209D104F50670FFF72DFE206104F576
:102CB0000770FFF728FEE060257009480088401C77
:102CC00080B207490880E0800020C7E63400002079
:102CD000F5FFFF0F5252614172724161000055AA27
:102CE0003800002070B504460D460026E069A84271
:102CF00010D0204600F0E2FB06465EB96078012362
:102D00002A4604F13001FFF7E7F910B14FF0FF3523
:102D10000126E561304670BD10B51A48C06940F023
:102D200004001849C86141F63F7017490880C01077
:102D3000091D088014481C38008840F00100124921
:102D40001C39088010482838008840F001000E49DE
:102D50002839088001211E20FEF75AFD1E20002878
:102D60000DDB00BF00BF00F01F02012191404209AE
:102D7000920002F1E022C2F8001100BF00BF00BFC4
:102D800010BD00000010024028080040014601EB81
:102D9000C10000EB0110504A02EB001000F5A870D2
:102DA00001EB81024D4B43F822004FF0807001EBA4
:102DB000C10202EB0112484B03EB0212C2F88C0174
:102DC0004FF0143001EBC10202EB011203EB0212CF
:102DD000C2F884014FF0123001EBC10202EB011284
:102DE00003EB0212C2F880014FF0033001EBC10285
:102DF00002EB011203EB0212C2F87C014FF0023029
:102E000001EBC10202EB011203EB0212C2F87801DE
:102E1000401001EBC10202EB011203EB0212C2F8F7
:102E20007401002001EBC10202EB011203EB02125C
:102E3000C2F870014FF0113001EBC10202EB011238
:102E400003EB0212C2F86C014FF0103001EBC1022B
:102E500002EB011203EB0212C2F868014FF00930D5
:102E600001EBC10202EB011203EB0212C2F8640192
:102E70004FF0083001EBC10202EB011203EB02122A
:102E8000C2F860014FF0073001EBC10202EB011202
:102E900003EB0212C2F85C014FF0063001EBC102F5
:102EA00002EB011203EB0212C2F858014FF0053099
:102EB00001EBC10202EB011203EB0212C2F8540152
:102EC0004FF0043001EBC10202EB011203EB0212DE
:102ED000C2F850010120704710030020D4020020E6
:102EE0002DE9F04104460D4616461F46314800883C
:102EF000032801DC642D02DD0220BDE8F0812D48AD
:102F0000008800B32B480088401E00EB80002A494F
:102F100001EB800040682749098801EB8101264ABE
:102F200002EB810148602348008800EB80001146D5
:102F300001EB80011F480088401E00EB800002EB7F
:102F40008000416008E01C481A49098801EB8101B2
:102F5000024602EB8101486016480088FFF716FF21
:102F60001448008800EBC00101EB0010134901EB8D
:102F70000010C0F888410F48008800EB80000E491F
:102F800001EB800006810B48008800EB800001EB1C
:102F90008000C76000200749098801EB8101064ACB
:102FA00002EB8101088203480088401C0149088027
:102FB0000120A2E73C000020D402002010030020E2
:102FC00010B541F63F7003490860FFF7A5FE0120E8
:102FD00010BD00004400002010B5044600204FF052
:102FE000E021086188610D49096804FB01F0401E79
:102FF0004FF0E02148610E214FF0FF30FEF708FC52
:103000000F216FF00100FEF703FC07204FF0E021D5
:103010000861FDF7D4F8012010BD00004400002035
:103020000A4B18680146FF2200BF4068C36833B9E5
:10303000038A23B90389934201DA02890146034BCB
:103040001B689842F1D1014B196070474000002085
:1030500072B6016062B6704772B60168491C0160C1
:1030600062B6704709E000214FF0E0229161064905
:10307000096841F08061044A116001680029F2D0BA
:103080000168491E0160704704ED00E072B609490D
:103090000968C8600121074A1268118262B60021DE
:1030A0004FF0E02291610449096841F08051024AE1
:1030B000116070474000002004ED00E02DE9F0476A
:1030C00004460D4616464FF00209022D74D360697E
:1030D000A84271D92078012804D0022849D00328B9
:1030E0000DD15EE02F4607EB5707606A00EB5721D2
:1030F0002046FFF7F7FD8146B9F1000F00D075E0DB
:1031000038467F1CC0F3080104F1300001EB0008D1
:1031100005F0010028B1F1B298F8000061F31F102A
:1031200000E0304688F8000001202071606A00EB62
:1031300057212046FFF7D6FD8146B9F1000F00D098
:1031400054E0C7F3080104F1300001EB000805F07A
:10315000010010B1C6F3071006E098F8000000F077
:10316000F000C6F30321084388F800000120207115
:103170003CE0606A00EB15212046FFF7B3FD814675
:10318000B9F1000F00D031E0B1B240F2FF1202EA13
:10319000450304F13002981800F024F90120207151
:1031A00024E0606A00EBD5112046FFF79BFD8146C5
:1031B000B9F1000F01D019E019E040F2FF1101EA66
:1031C000850204F130015018FFF79DFB66F31B00E8
:1031D000064640F2FF1101EA850204F13001501861
:1031E000314600F005F90120207100BF00BF4846BC
:1031F000BDE8F087F8B505460E464FF47A740CE04A
:103200000121684600F01CF89DF80000FF2800D05E
:1032100005E06420FEF7F8FF641E002CF0D100BF2B
:103220009DF80000FE2801D00020F8BD3146284658
:1032300000F006F80221684600F002F80120F4E7E9
:1032400070B504460D4600BFFF20FDF7D1FD04F820
:10325000010B681E051EF7D170BD000010B50446B5
:10326000322221460448FFF717F804490870024843
:10327000FEF7D0FF10BD00009C02002014000020CB
:103280002DE9F04781460E4617464FF00008D9F861
:103290000040022E02D36069B04202D80220BDE88D
:1032A000F08767B100BF4FF0FF3239462046FFF785
:1032B00005FF8046B8F1000F01D04046EFE700BFA0
:1032C00031464846FFF780FA054605B922E0012D50
:1032D00001D10220E3E7681C08B90120DFE70022E2
:1032E00031462046FFF7EAFE8046B8F1000F01D0D4
:1032F0004046D4E7D4E90410801E814206D22069FA
:10330000401C2061607940F0010060712E466069C8
:10331000B042D5D800BF0020C1E7000008B54FF487
:1033200080510848FDF735FB01216846FFF788FF0B
:1033300000F00AFA08B1012008BDFEF759FC002090
:10334000FAE70000000C0140FEB504460D4604F00B
:10335000800050B104F07F0400213720FFF7F4FF14
:103360000646012E01DD3046FEBD0C2C06D0FEF7D0
:103370003FFCFFF7D3FF08B9FF20F5E744F040001A
:103380008DF80000280E8DF80100280C8DF8020041
:10339000280A8DF80300E8B28DF80400012604B96C
:1033A0009526082C00D187268DF8056006216846F1
:1033B00000F00AFA0C2C03D1012102A8FFF740FF0C
:1033C0000A2600BF012102A8FFF73AFF9DF8080076
:1033D00000F0800018B1701EC0B2061EF2D19DF838
:1033E0000800C1E700F8011B091200F8011B704733
:1033F00000F8011B090A00F8011B090A00F8011B6B
:10340000090A00F8011B704770B506460C461546C0
:10341000A9B204F11A00FFF7E5FF3078032804D1C0
:10342000290C04F11400FFF7DDFF70BD70B50446F0
:10343000204600F043F80546002D37D16079012879
:103440002DD1002060712078032828D14FF400711D
:1034500004F13000FDF7FDF8154904F13000FFF7E5
:10346000C7FF144904F50570FFF7C2FF04F50670A5
:103470002169FFF7BDFF04F50770E168FFF7B8FFAA
:103480000D4904F50B70FFF7B3FF216A491C0A468A
:10349000E1616078012304F13001FEF767FE607896
:1034A00000221146FEF7AAFD00B10125284670BD95
:1034B0005252614172724161000055AA70B50446D2
:1034C00000252079E8B16078012304F13001E26938
:1034D000FEF74CFEA0B900202071616AE069401A35
:1034E000A16988420DD2E07802280AD1D4E90631D8
:1034F000CA186078012304F13001FEF737FE00E0BE
:103500000125284670BD000055E02B48FFF7AAFDB5
:10351000FDF7B6FB29480078422823D128480068E7
:10352000401C274908602748FDF7E2FBFDF7DBFB5D
:103530002348007800F0010030B1214822A1026840
:103540002348FCF76FFE05E01D4822A102682048D1
:10355000FCF768FE1E48FDF7CBFB1D4C1FA1204663
:1035600000F0AEF815480078462823D11E480068C0
:10357000401C1D4908601348FDF7BAFBFDF7B3FB7B
:103580001948007800F0010030B117480EA1026818
:103590000F48FCF747FE05E013480EA102680C48EF
:1035A000FCF740FE0A48FDF7A3FB094C0FA120469B
:1035B00000F086F800BFA8E70C00002005000020FE
:1035C000280000205C000020494E3A2025640000BD
:1035D000C40200204F55543A20256400423643323D
:1035E0003642322E747874002C0000204637314663
:1035F0003842432E747874000EB520E01048FDF771
:103600002FFCE0B90E4800790D49C9780C4A927830
:10361000CDE9002102900A484378027809A10F48B9
:10362000FCF700FE0D48C0780D4908700D48FFF703
:1036300013FD0D48FFF710FD0320FFF727FDDDE721
:103640000000002049443A253032582530325825B0
:103650003032582530325825303258005C00002076
:1036600005000020080000200C00002022E0124885
:10367000007868B91148FFF7F5FC40F62820FDF7FF
:103680007DFF01200C4908700520FFF7FFFC10E0CA
:103690000A48006830B10948FFF7E4FC0520FFF74D
:1036A000F5FC07E040F2A460FDF768FF0020024946
:1036B000087000BFDBE700002400002008000020A5
:1036C00070B504460D46322229460C48FEF7E4FD4B
:1036D0000B4908700B4B0A2221460848FEF700FFF1
:1036E00007490870074B022207A10448FEF7F8FEBD
:1036F000034908700148FEF78DFD70BD9C02002053
:1037000014000020100000200D0A000070B50446CF
:103710000D4609268CB1206878B12068007860B128
:10372000A0882168C988884207D121684878FEF7B7
:1037300013FD00F0010000B900260EB9206800E07A
:1037400000202860304670BD38B541F288340CE066
:1037500001216846FFF774FD9DF80000FF2800D1A5
:1037600005E06420FEF750FD641E002CF0D100BF80
:103770000CB1012038BD0020FCE738B505460C46E9
:10378000FFF7E2FF08B9002038BD8DF800400121A5
:10379000684600F019F8FD2C14D04FF4007128464B
:1037A00000F012F802216846FFF74AFD0121684641
:1037B000FFF746FD9DF8000000F01F00052801D02E
:1037C0000020E1E70120DFE770B504460D4600BFA9
:1037D00014F8016B3046FDF70BFB681E051EF7D190
:1037E00070BD819FE0FC407E80FC000030313233B0
:1037F0003435363738394142434445464030580025
:103800003031323334353637383961626364656656
:1038100040307800040000080000000000000002B2
:1038200000010000100000004838000800000020DF
:103830005C00000028010008A43800085C0000209B
:10384000C40D00004401000800000000000000005A
:103850000000000000000000000000000000000068
:103860000000000000000000000000000000000058
:103870000000000000000000000000000000000048
:103880000000010000000000D40200200000000041
:1038900000000000010203040102030406070809F6
:0438A0000204060810
:04000005080001E509
:00000001FF
